{
  "_format": "hh3-artifact-1",
  "contractName": "Counter",
  "sourceName": "contracts/Counter.sol",
  "abi": [
    {
      "inputs": [
        {
          "internalType": "address",
          "name": "admin",
          "type": "address"
        }
      ],
      "stateMutability": "nonpayable",
      "type": "constructor"
    },
    {
      "inputs": [],
      "name": "AccessControlBadConfirmation",
      "type": "error"
    },
    {
      "inputs": [
        {
          "internalType": "address",
          "name": "account",
          "type": "address"
        },
        {
          "internalType": "bytes32",
          "name": "neededRole",
          "type": "bytes32"
        }
      ],
      "name": "AccessControlUnauthorizedAccount",
      "type": "error"
    },
    {
      "inputs": [],
      "name": "EnforcedPause",
      "type": "error"
    },
    {
      "inputs": [],
      "name": "ExpectedPause",
      "type": "error"
    },
    {
      "anonymous": false,
      "inputs": [
        {
          "indexed": true,
          "internalType": "uint256",
          "name": "batchId",
          "type": "uint256"
        },
        {
          "indexed": false,
          "internalType": "bytes32",
          "name": "metadataHash",
          "type": "bytes32"
        },
        {
          "indexed": false,
          "internalType": "string",
          "name": "metadataCID",
          "type": "string"
        },
        {
          "indexed": true,
          "internalType": "address",
          "name": "producer",
          "type": "address"
        },
        {
          "indexed": false,
          "internalType": "uint256",
          "name": "createdAt",
          "type": "uint256"
        }
      ],
      "name": "BatchCreated",
      "type": "event"
    },
    {
      "anonymous": false,
      "inputs": [
        {
          "indexed": true,
          "internalType": "uint256",
          "name": "batchId",
          "type": "uint256"
        },
        {
          "indexed": false,
          "internalType": "enum Counter.BatchStatus",
          "name": "oldStatus",
          "type": "uint8"
        },
        {
          "indexed": false,
          "internalType": "enum Counter.BatchStatus",
          "name": "newStatus",
          "type": "uint8"
        },
        {
          "indexed": true,
          "internalType": "address",
          "name": "changedBy",
          "type": "address"
        },
        {
          "indexed": false,
          "internalType": "uint256",
          "name": "timestamp",
          "type": "uint256"
        }
      ],
      "name": "BatchStatusChanged",
      "type": "event"
    },
    {
      "anonymous": false,
      "inputs": [
        {
          "indexed": true,
          "internalType": "address",
          "name": "by",
          "type": "address"
        },
        {
          "indexed": false,
          "internalType": "uint256",
          "name": "timestamp",
          "type": "uint256"
        }
      ],
      "name": "ContractPaused",
      "type": "event"
    },
    {
      "anonymous": false,
      "inputs": [
        {
          "indexed": true,
          "internalType": "address",
          "name": "by",
          "type": "address"
        },
        {
          "indexed": false,
          "internalType": "uint256",
          "name": "timestamp",
          "type": "uint256"
        }
      ],
      "name": "ContractUnpaused",
      "type": "event"
    },
    {
      "anonymous": false,
      "inputs": [
        {
          "indexed": true,
          "internalType": "uint256",
          "name": "batchId",
          "type": "uint256"
        },
        {
          "indexed": true,
          "internalType": "address",
          "name": "from",
          "type": "address"
        },
        {
          "indexed": true,
          "internalType": "address",
          "name": "to",
          "type": "address"
        },
        {
          "indexed": false,
          "internalType": "uint256",
          "name": "timestamp",
          "type": "uint256"
        }
      ],
      "name": "CustodyTransferred",
      "type": "event"
    },
    {
      "anonymous": false,
      "inputs": [
        {
          "indexed": true,
          "internalType": "uint256",
          "name": "custodyId",
          "type": "uint256"
        },
        {
          "indexed": true,
          "internalType": "uint256",
          "name": "batchId",
          "type": "uint256"
        },
        {
          "indexed": true,
          "internalType": "address",
          "name": "actor",
          "type": "address"
        },
        {
          "indexed": false,
          "internalType": "bytes32",
          "name": "updateHash",
          "type": "bytes32"
        },
        {
          "indexed": false,
          "internalType": "string",
          "name": "note",
          "type": "string"
        },
        {
          "indexed": false,
          "internalType": "uint256",
          "name": "timestamp",
          "type": "uint256"
        }
      ],
      "name": "CustodyUpdated",
      "type": "event"
    },
    {
      "anonymous": false,
      "inputs": [
        {
          "indexed": true,
          "internalType": "uint256",
          "name": "issueId",
          "type": "uint256"
        },
        {
          "indexed": false,
          "internalType": "bytes32",
          "name": "evidenceHash",
          "type": "bytes32"
        },
        {
          "indexed": true,
          "internalType": "address",
          "name": "anchoredBy",
          "type": "address"
        },
        {
          "indexed": false,
          "internalType": "uint256",
          "name": "timestamp",
          "type": "uint256"
        }
      ],
      "name": "EvidenceAnchored",
      "type": "event"
    },
    {
      "anonymous": false,
      "inputs": [
        {
          "indexed": true,
          "internalType": "uint256",
          "name": "issueId",
          "type": "uint256"
        },
        {
          "indexed": true,
          "internalType": "uint256",
          "name": "batchId",
          "type": "uint256"
        },
        {
          "indexed": false,
          "internalType": "bytes32",
          "name": "issueHash",
          "type": "bytes32"
        },
        {
          "indexed": false,
          "internalType": "string",
          "name": "issueType",
          "type": "string"
        },
        {
          "indexed": true,
          "internalType": "address",
          "name": "reporter",
          "type": "address"
        },
        {
          "indexed": false,
          "internalType": "uint256",
          "name": "reportedAt",
          "type": "uint256"
        }
      ],
      "name": "IssueOpened",
      "type": "event"
    },
    {
      "anonymous": false,
      "inputs": [
        {
          "indexed": true,
          "internalType": "uint256",
          "name": "issueId",
          "type": "uint256"
        },
        {
          "indexed": true,
          "internalType": "uint256",
          "name": "batchId",
          "type": "uint256"
        },
        {
          "indexed": false,
          "internalType": "enum Counter.IssueStatus",
          "name": "finalStatus",
          "type": "uint8"
        },
        {
          "indexed": false,
          "internalType": "enum Counter.ResolutionType",
          "name": "resolutionType",
          "type": "uint8"
        },
        {
          "indexed": false,
          "internalType": "bytes32",
          "name": "settlementHash",
          "type": "bytes32"
        },
        {
          "indexed": false,
          "internalType": "uint256",
          "name": "refundAmount",
          "type": "uint256"
        },
        {
          "indexed": true,
          "internalType": "address",
          "name": "resolvedBy",
          "type": "address"
        },
        {
          "indexed": false,
          "internalType": "uint256",
          "name": "resolvedAt",
          "type": "uint256"
        }
      ],
      "name": "IssueSettled",
      "type": "event"
    },
    {
      "anonymous": false,
      "inputs": [
        {
          "indexed": false,
          "internalType": "address",
          "name": "account",
          "type": "address"
        }
      ],
      "name": "Paused",
      "type": "event"
    },
    {
      "anonymous": false,
      "inputs": [
        {
          "indexed": true,
          "internalType": "uint256",
          "name": "batchId",
          "type": "uint256"
        },
        {
          "indexed": true,
          "internalType": "address",
          "name": "payer",
          "type": "address"
        },
        {
          "indexed": true,
          "internalType": "address",
          "name": "payee",
          "type": "address"
        },
        {
          "indexed": false,
          "internalType": "uint256",
          "name": "amount",
          "type": "uint256"
        },
        {
          "indexed": false,
          "internalType": "uint256",
          "name": "flatFee",
          "type": "uint256"
        },
        {
          "indexed": false,
          "internalType": "uint256",
          "name": "timestamp",
          "type": "uint256"
        }
      ],
      "name": "PaymentLocked",
      "type": "event"
    },
    {
      "anonymous": false,
      "inputs": [
        {
          "indexed": true,
          "internalType": "uint256",
          "name": "batchId",
          "type": "uint256"
        },
        {
          "indexed": true,
          "internalType": "address",
          "name": "payer",
          "type": "address"
        },
        {
          "indexed": false,
          "internalType": "uint256",
          "name": "refundAmount",
          "type": "uint256"
        },
        {
          "indexed": false,
          "internalType": "enum Counter.ResolutionType",
          "name": "resolutionType",
          "type": "uint8"
        },
        {
          "indexed": false,
          "internalType": "uint256",
          "name": "timestamp",
          "type": "uint256"
        }
      ],
      "name": "PaymentRefunded",
      "type": "event"
    },
    {
      "anonymous": false,
      "inputs": [
        {
          "indexed": true,
          "internalType": "uint256",
          "name": "batchId",
          "type": "uint256"
        },
        {
          "indexed": true,
          "internalType": "address",
          "name": "payee",
          "type": "address"
        },
        {
          "indexed": false,
          "internalType": "uint256",
          "name": "amount",
          "type": "uint256"
        },
        {
          "indexed": false,
          "internalType": "uint256",
          "name": "flatFee",
          "type": "uint256"
        },
        {
          "indexed": false,
          "internalType": "uint256",
          "name": "timestamp",
          "type": "uint256"
        }
      ],
      "name": "PaymentReleased",
      "type": "event"
    },
    {
      "anonymous": false,
      "inputs": [
        {
          "indexed": true,
          "internalType": "uint256",
          "name": "issueId",
          "type": "uint256"
        },
        {
          "indexed": true,
          "internalType": "address",
          "name": "confirmedBy",
          "type": "address"
        },
        {
          "indexed": false,
          "internalType": "uint256",
          "name": "timestamp",
          "type": "uint256"
        }
      ],
      "name": "ResolutionConfirmed",
      "type": "event"
    },
    {
      "anonymous": false,
      "inputs": [
        {
          "indexed": true,
          "internalType": "bytes32",
          "name": "role",
          "type": "bytes32"
        },
        {
          "indexed": true,
          "internalType": "bytes32",
          "name": "previousAdminRole",
          "type": "bytes32"
        },
        {
          "indexed": true,
          "internalType": "bytes32",
          "name": "newAdminRole",
          "type": "bytes32"
        }
      ],
      "name": "RoleAdminChanged",
      "type": "event"
    },
    {
      "anonymous": false,
      "inputs": [
        {
          "indexed": true,
          "internalType": "bytes32",
          "name": "role",
          "type": "bytes32"
        },
        {
          "indexed": true,
          "internalType": "address",
          "name": "account",
          "type": "address"
        },
        {
          "indexed": true,
          "internalType": "address",
          "name": "sender",
          "type": "address"
        }
      ],
      "name": "RoleGranted",
      "type": "event"
    },
    {
      "anonymous": false,
      "inputs": [
        {
          "indexed": true,
          "internalType": "bytes32",
          "name": "role",
          "type": "bytes32"
        },
        {
          "indexed": true,
          "internalType": "address",
          "name": "account",
          "type": "address"
        },
        {
          "indexed": true,
          "internalType": "address",
          "name": "sender",
          "type": "address"
        }
      ],
      "name": "RoleRevoked",
      "type": "event"
    },
    {
      "anonymous": false,
      "inputs": [
        {
          "indexed": false,
          "internalType": "address",
          "name": "account",
          "type": "address"
        }
      ],
      "name": "Unpaused",
      "type": "event"
    },
    {
      "inputs": [],
      "name": "AUDITOR_ROLE",
      "outputs": [
        {
          "internalType": "bytes32",
          "name": "",
          "type": "bytes32"
        }
      ],
      "stateMutability": "view",
      "type": "function"
    },
    {
      "inputs": [],
      "name": "DEFAULT_ADMIN_ROLE",
      "outputs": [
        {
          "internalType": "bytes32",
          "name": "",
          "type": "bytes32"
        }
      ],
      "stateMutability": "view",
      "type": "function"
    },
    {
      "inputs": [],
      "name": "DISTRIBUTOR_ROLE",
      "outputs": [
        {
          "internalType": "bytes32",
          "name": "",
          "type": "bytes32"
        }
      ],
      "stateMutability": "view",
      "type": "function"
    },
    {
      "inputs": [],
      "name": "INSPECTOR_ROLE",
      "outputs": [
        {
          "internalType": "bytes32",
          "name": "",
          "type": "bytes32"
        }
      ],
      "stateMutability": "view",
      "type": "function"
    },
    {
      "inputs": [],
      "name": "PRODUCER_ROLE",
      "outputs": [
        {
          "internalType": "bytes32",
          "name": "",
          "type": "bytes32"
        }
      ],
      "stateMutability": "view",
      "type": "function"
    },
    {
      "inputs": [],
      "name": "RESOLVER_ROLE",
      "outputs": [
        {
          "internalType": "bytes32",
          "name": "",
          "type": "bytes32"
        }
      ],
      "stateMutability": "view",
      "type": "function"
    },
    {
      "inputs": [],
      "name": "RETAILER_ROLE",
      "outputs": [
        {
          "internalType": "bytes32",
          "name": "",
          "type": "bytes32"
        }
      ],
      "stateMutability": "view",
      "type": "function"
    },
    {
      "inputs": [
        {
          "internalType": "uint256",
          "name": "issueId",
          "type": "uint256"
        },
        {
          "internalType": "bytes32",
          "name": "evidenceHash",
          "type": "bytes32"
        }
      ],
      "name": "anchorEvidence",
      "outputs": [],
      "stateMutability": "nonpayable",
      "type": "function"
    },
    {
      "inputs": [
        {
          "internalType": "uint256",
          "name": "",
          "type": "uint256"
        },
        {
          "internalType": "uint256",
          "name": "",
          "type": "uint256"
        }
      ],
      "name": "batchCustodyLog",
      "outputs": [
        {
          "internalType": "uint256",
          "name": "",
          "type": "uint256"
        }
      ],
      "stateMutability": "view",
      "type": "function"
    },
    {
      "inputs": [
        {
          "internalType": "uint256",
          "name": "",
          "type": "uint256"
        },
        {
          "internalType": "uint256",
          "name": "",
          "type": "uint256"
        }
      ],
      "name": "batchIssues",
      "outputs": [
        {
          "internalType": "uint256",
          "name": "",
          "type": "uint256"
        }
      ],
      "stateMutability": "view",
      "type": "function"
    },
    {
      "inputs": [
        {
          "internalType": "uint256",
          "name": "",
          "type": "uint256"
        }
      ],
      "name": "batches",
      "outputs": [
        {
          "internalType": "uint256",
          "name": "id",
          "type": "uint256"
        },
        {
          "internalType": "bytes32",
          "name": "metadataHash",
          "type": "bytes32"
        },
        {
          "internalType": "string",
          "name": "metadataCID",
          "type": "string"
        },
        {
          "internalType": "address",
          "name": "producer",
          "type": "address"
        },
        {
          "internalType": "address",
          "name": "currentOwner",
          "type": "address"
        },
        {
          "internalType": "uint256",
          "name": "createdAt",
          "type": "uint256"
        },
        {
          "internalType": "enum Counter.BatchStatus",
          "name": "status",
          "type": "uint8"
        },
        {
          "internalType": "bool",
          "name": "exists",
          "type": "bool"
        },
        {
          "internalType": "uint256",
          "name": "openIssueCount",
          "type": "uint256"
        }
      ],
      "stateMutability": "view",
      "type": "function"
    },
    {
      "inputs": [
        {
          "internalType": "uint256",
          "name": "issueId",
          "type": "uint256"
        }
      ],
      "name": "confirmResolution",
      "outputs": [],
      "stateMutability": "nonpayable",
      "type": "function"
    },
    {
      "inputs": [
        {
          "internalType": "bytes32",
          "name": "metadataHash",
          "type": "bytes32"
        },
        {
          "internalType": "string",
          "name": "metadataCID",
          "type": "string"
        }
      ],
      "name": "createBatch",
      "outputs": [
        {
          "internalType": "uint256",
          "name": "batchId",
          "type": "uint256"
        }
      ],
      "stateMutability": "nonpayable",
      "type": "function"
    },
    {
      "inputs": [
        {
          "internalType": "uint256",
          "name": "",
          "type": "uint256"
        }
      ],
      "name": "custodyUpdates",
      "outputs": [
        {
          "internalType": "uint256",
          "name": "batchId",
          "type": "uint256"
        },
        {
          "internalType": "address",
          "name": "actor",
          "type": "address"
        },
        {
          "internalType": "bytes32",
          "name": "updateHash",
          "type": "bytes32"
        },
        {
          "internalType": "uint256",
          "name": "timestamp",
          "type": "uint256"
        },
        {
          "internalType": "string",
          "name": "note",
          "type": "string"
        }
      ],
      "stateMutability": "view",
      "type": "function"
    },
    {
      "inputs": [
        {
          "internalType": "uint256",
          "name": "",
          "type": "uint256"
        }
      ],
      "name": "escrows",
      "outputs": [
        {
          "internalType": "uint256",
          "name": "batchId",
          "type": "uint256"
        },
        {
          "internalType": "address",
          "name": "payer",
          "type": "address"
        },
        {
          "internalType": "address",
          "name": "payee",
          "type": "address"
        },
        {
          "internalType": "uint256",
          "name": "amount",
          "type": "uint256"
        },
        {
          "internalType": "uint256",
          "name": "flatFee",
          "type": "uint256"
        },
        {
          "internalType": "uint256",
          "name": "lockedAt",
          "type": "uint256"
        },
        {
          "internalType": "uint256",
          "name": "settledAt",
          "type": "uint256"
        },
        {
          "internalType": "enum Counter.EscrowStatus",
          "name": "status",
          "type": "uint8"
        },
        {
          "internalType": "bool",
          "name": "exists",
          "type": "bool"
        }
      ],
      "stateMutability": "view",
      "type": "function"
    },
    {
      "inputs": [
        {
          "internalType": "uint256",
          "name": "batchId",
          "type": "uint256"
        }
      ],
      "name": "getBatchStatus",
      "outputs": [
        {
          "internalType": "enum Counter.BatchStatus",
          "name": "",
          "type": "uint8"
        }
      ],
      "stateMutability": "view",
      "type": "function"
    },
    {
      "inputs": [
        {
          "internalType": "uint256",
          "name": "batchId",
          "type": "uint256"
        }
      ],
      "name": "getCurrentOwner",
      "outputs": [
        {
          "internalType": "address",
          "name": "",
          "type": "address"
        }
      ],
      "stateMutability": "view",
      "type": "function"
    },
    {
      "inputs": [
        {
          "internalType": "uint256",
          "name": "batchId",
          "type": "uint256"
        }
      ],
      "name": "getCustodyLog",
      "outputs": [
        {
          "internalType": "uint256[]",
          "name": "",
          "type": "uint256[]"
        }
      ],
      "stateMutability": "view",
      "type": "function"
    },
    {
      "inputs": [
        {
          "internalType": "uint256",
          "name": "batchId",
          "type": "uint256"
        }
      ],
      "name": "getIssuesByBatch",
      "outputs": [
        {
          "internalType": "uint256[]",
          "name": "",
          "type": "uint256[]"
        }
      ],
      "stateMutability": "view",
      "type": "function"
    },
    {
      "inputs": [
        {
          "internalType": "uint256",
          "name": "batchId",
          "type": "uint256"
        }
      ],
      "name": "getOpenIssueCount",
      "outputs": [
        {
          "internalType": "uint256",
          "name": "",
          "type": "uint256"
        }
      ],
      "stateMutability": "view",
      "type": "function"
    },
    {
      "inputs": [
        {
          "internalType": "bytes32",
          "name": "role",
          "type": "bytes32"
        }
      ],
      "name": "getRoleAdmin",
      "outputs": [
        {
          "internalType": "bytes32",
          "name": "",
          "type": "bytes32"
        }
      ],
      "stateMutability": "view",
      "type": "function"
    },
    {
      "inputs": [
        {
          "internalType": "bytes32",
          "name": "role",
          "type": "bytes32"
        },
        {
          "internalType": "address",
          "name": "account",
          "type": "address"
        }
      ],
      "name": "grantRole",
      "outputs": [],
      "stateMutability": "nonpayable",
      "type": "function"
    },
    {
      "inputs": [
        {
          "internalType": "bytes32",
          "name": "role",
          "type": "bytes32"
        },
        {
          "internalType": "address",
          "name": "account",
          "type": "address"
        }
      ],
      "name": "hasRole",
      "outputs": [
        {
          "internalType": "bool",
          "name": "",
          "type": "bool"
        }
      ],
      "stateMutability": "view",
      "type": "function"
    },
    {
      "inputs": [
        {
          "internalType": "uint256",
          "name": "issueId",
          "type": "uint256"
        }
      ],
      "name": "isResolutionConfirmed",
      "outputs": [
        {
          "internalType": "bool",
          "name": "",
          "type": "bool"
        }
      ],
      "stateMutability": "view",
      "type": "function"
    },
    {
      "inputs": [
        {
          "internalType": "uint256",
          "name": "",
          "type": "uint256"
        }
      ],
      "name": "issues",
      "outputs": [
        {
          "internalType": "uint256",
          "name": "id",
          "type": "uint256"
        },
        {
          "internalType": "uint256",
          "name": "batchId",
          "type": "uint256"
        },
        {
          "internalType": "bytes32",
          "name": "issueHash",
          "type": "bytes32"
        },
        {
          "internalType": "string",
          "name": "issueType",
          "type": "string"
        },
        {
          "internalType": "address",
          "name": "reporter",
          "type": "address"
        },
        {
          "internalType": "uint256",
          "name": "reportedAt",
          "type": "uint256"
        },
        {
          "internalType": "enum Counter.IssueStatus",
          "name": "status",
          "type": "uint8"
        },
        {
          "internalType": "bytes32",
          "name": "evidenceHash",
          "type": "bytes32"
        },
        {
          "internalType": "bytes32",
          "name": "settlementHash",
          "type": "bytes32"
        },
        {
          "internalType": "enum Counter.ResolutionType",
          "name": "resolutionType",
          "type": "uint8"
        },
        {
          "internalType": "uint256",
          "name": "refundAmount",
          "type": "uint256"
        },
        {
          "internalType": "address",
          "name": "resolvedBy",
          "type": "address"
        },
        {
          "internalType": "uint256",
          "name": "resolvedAt",
          "type": "uint256"
        },
        {
          "internalType": "bool",
          "name": "stakeholderConfirmed",
          "type": "bool"
        }
      ],
      "stateMutability": "view",
      "type": "function"
    },
    {
      "inputs": [
        {
          "internalType": "uint256",
          "name": "batchId",
          "type": "uint256"
        },
        {
          "internalType": "address",
          "name": "payee",
          "type": "address"
        },
        {
          "internalType": "uint256",
          "name": "flatFee",
          "type": "uint256"
        }
      ],
      "name": "lockPayment",
      "outputs": [
        {
          "internalType": "uint256",
          "name": "lockedAmount",
          "type": "uint256"
        }
      ],
      "stateMutability": "payable",
      "type": "function"
    },
    {
      "inputs": [],
      "name": "pause",
      "outputs": [],
      "stateMutability": "nonpayable",
      "type": "function"
    },
    {
      "inputs": [],
      "name": "paused",
      "outputs": [
        {
          "internalType": "bool",
          "name": "",
          "type": "bool"
        }
      ],
      "stateMutability": "view",
      "type": "function"
    },
    {
      "inputs": [
        {
          "internalType": "uint256",
          "name": "batchId",
          "type": "uint256"
        }
      ],
      "name": "releasePayment",
      "outputs": [],
      "stateMutability": "nonpayable",
      "type": "function"
    },
    {
      "inputs": [
        {
          "internalType": "bytes32",
          "name": "role",
          "type": "bytes32"
        },
        {
          "internalType": "address",
          "name": "callerConfirmation",
          "type": "address"
        }
      ],
      "name": "renounceRole",
      "outputs": [],
      "stateMutability": "nonpayable",
      "type": "function"
    },
    {
      "inputs": [
        {
          "internalType": "uint256",
          "name": "batchId",
          "type": "uint256"
        },
        {
          "internalType": "bytes32",
          "name": "issueHash",
          "type": "bytes32"
        },
        {
          "internalType": "string",
          "name": "issueType",
          "type": "string"
        }
      ],
      "name": "reportIssue",
      "outputs": [
        {
          "internalType": "uint256",
          "name": "issueId",
          "type": "uint256"
        }
      ],
      "stateMutability": "nonpayable",
      "type": "function"
    },
    {
      "inputs": [
        {
          "internalType": "uint256",
          "name": "issueId",
          "type": "uint256"
        },
        {
          "internalType": "bytes32",
          "name": "settlementHash",
          "type": "bytes32"
        },
        {
          "internalType": "enum Counter.ResolutionType",
          "name": "resolution",
          "type": "uint8"
        },
        {
          "internalType": "uint256",
          "name": "refundAmount",
          "type": "uint256"
        }
      ],
      "name": "resolveIssue",
      "outputs": [],
      "stateMutability": "nonpayable",
      "type": "function"
    },
    {
      "inputs": [
        {
          "internalType": "bytes32",
          "name": "role",
          "type": "bytes32"
        },
        {
          "internalType": "address",
          "name": "account",
          "type": "address"
        }
      ],
      "name": "revokeRole",
      "outputs": [],
      "stateMutability": "nonpayable",
      "type": "function"
    },
    {
      "inputs": [
        {
          "internalType": "bytes4",
          "name": "interfaceId",
          "type": "bytes4"
        }
      ],
      "name": "supportsInterface",
      "outputs": [
        {
          "internalType": "bool",
          "name": "",
          "type": "bool"
        }
      ],
      "stateMutability": "view",
      "type": "function"
    },
    {
      "inputs": [
        {
          "internalType": "uint256",
          "name": "batchId",
          "type": "uint256"
        },
        {
          "internalType": "address",
          "name": "to",
          "type": "address"
        }
      ],
      "name": "transferCustody",
      "outputs": [],
      "stateMutability": "nonpayable",
      "type": "function"
    },
    {
      "inputs": [],
      "name": "treasury",
      "outputs": [
        {
          "internalType": "address",
          "name": "",
          "type": "address"
        }
      ],
      "stateMutability": "view",
      "type": "function"
    },
    {
      "inputs": [],
      "name": "unpause",
      "outputs": [],
      "stateMutability": "nonpayable",
      "type": "function"
    },
    {
      "inputs": [
        {
          "internalType": "uint256",
          "name": "batchId",
          "type": "uint256"
        },
        {
          "internalType": "bytes32",
          "name": "updateHash",
          "type": "bytes32"
        },
        {
          "internalType": "string",
          "name": "note",
          "type": "string"
        }
      ],
      "name": "updateCustody",
      "outputs": [],
      "stateMutability": "nonpayable",
      "type": "function"
    }
  ],
  "bytecode": "0x60803461007e57601f613bc038819003918201601f19168301916001600160401b038311848410176100825780849260209460405283398101031261007e57516001600160a01b0381169081810361007e5761005a90610096565b50600580546001600160a01b031916919091179055604051613a8090816101208239f35b5f80fd5b634e487b7160e01b5f52604160045260245ffd5b6001600160a01b0381165f9081525f516020613ba05f395f51905f52602052604090205460ff1661011a576001600160a01b03165f8181525f516020613ba05f395f51905f5260205260408120805460ff191660011790553391907f2f8788117e7eff1d82e926ec794901d17c78024a50270940304540a733656f0d8180a4600190565b505f9056fe6080806040526004361015610012575f80fd5b5f3560e01c908163012f52ee1461320d5750806301ffc9a7146131b757806304e15de5146130af5780631ddfb32614612d9c578063205e029214612d385780632115e7bf14612cfe578063248a9ca314612ccc5780632d1bbc8e14612c335780632f2ff15d14612bf657806336568abe14612bb25780633f4ba83a14612b2057806347e0e6c21461252e578063557798fb146124bc57806359016456146120d35780635c975abb146120b157806361d027b3146120895780636e1d616e1461204f57806375c71f1614611b645780637638258e14611acc57806378fab26014611a925780637ace341b146119fe578063815fc9bb146115415780638456cb59146114bd57806388685cd91461119857806391d1485414611150578063a217fddf14611136578063adcc83841461109b578063b32c4d8d14610fe0578063c4f8ce8a1461099f578063cb3e1fe714610965578063d547741f14610921578063e14dcbc914610614578063e3a3c522146105da578063e770bcb5146105ab578063e866245e146102ae578063f03ef92b14610270578063f0bd87cc146102365763f947b0c0146101be575f80fd5b34610232576020366003190112610232576004355f52600b60205260405f206040519081602082549182815201915f5260205f20905f5b81811061021c576102188561020c81870382613303565b60405191829182613400565b0390f35b82548452602090930192600192830192016101f5565b5f80fd5b34610232575f3660031901126102325760206040517ffbd454f36a7e1a388bd6fc3ab10d434aa4578f811acbbcf33afb1c697486313c8152f35b346102325761027e366134b4565b905f52600b60205260405f2080548210156102325760209161029f916134ca565b90549060031b1c604051908152f35b34610232576040366003190112610232576024356004356102cd613614565b335f9081527facfff8a39fb957d9d1c8e3ef9f08385e3fcf7bb23ab7ba0ad0f8df93dbde6a68602052604090205460ff168015610587575b8015610563575b156104ee57805f52600760205260405f206005810154156104a957600681019060ff825416600481101561049557801590811561048a575b50156104455783156103f257600701805461039b57839055600160ff198254161790556040519182524260208301527f035277a9a2e038bb1534a7a6e32966fd1b8793d4b564c18661e6ebc2e7f8d04860403393a3005b60405162461bcd60e51b815260206004820152602960248201527f616e63686f7245766964656e63653a2065766964656e636520616c726561647960448201526808185b98da1bdc995960ba1b6064820152608490fd5b60405162461bcd60e51b815260206004820152602560248201527f616e63686f7245766964656e63653a2065766964656e636548617368207265716044820152641d5a5c995960da1b6064820152608490fd5b60405162461bcd60e51b815260206004820152601e60248201527f616e63686f7245766964656e63653a206973737565206e6f74206f70656e00006044820152606490fd5b600191501485610344565b634e487b7160e01b5f52602160045260245ffd5b60405162461bcd60e51b815260206004820152601f60248201527f616e63686f7245766964656e63653a206973737565206e6f7420666f756e64006044820152606490fd5b60405162461bcd60e51b815260206004820152604160248201527f616e63686f7245766964656e63653a2063616c6c6572206973206e6f7420696e60448201527f73706563746f722c2072657461696c65722c206f72206469737472696275746f6064820152603960f91b608482015260a490fd5b50335f9081525f516020613a0b5f395f51905f52602052604090205460ff1661030c565b50335f9081525f516020613a2b5f395f51905f52602052604090205460ff16610305565b34610232576105b9366134b4565b905f52600a60205260405f2080548210156102325760209161029f916134ca565b34610232575f3660031901126102325760206040517f273dcf2136c7d8ef632bb8ef13dbca69a8f36fa620c7468671b3153d46a211c08152f35b60603660031901126102325760043561062b613439565b60443590610637613614565b825f52600660205260ff600660405f20015460081c16156108dc57825f52600960205260ff600760405f20015460081c1661088c576001600160a01b0316918215610847573415610802573482116107b157604051610695816132e6565b81815233602080830191825260408084018781523460608601908152608086018881524260a088019081525f60c08901818152600160e08b018181526101008c018281528d85526009909a529790922099518a55975190890180546001600160a01b03199081166001600160a01b0393841617909155945160028a0180549096169116179093559051600387015551600486015551600580860191909155925160068501555192600701918310156104955761075461076b93836135ef565b51815461ff00191690151560081b61ff0016179055565b604080513481526020810193909352429083015233917fe84ce00ee4f872045af079f94753903e7ad3277a60a306870208f273eaff47d990606090a46020604051348152f35b60405162461bcd60e51b8152602060048201526024808201527f6c6f636b5061796d656e743a20666c61744665652065786365656473207061796044820152631b595b9d60e21b6064820152608490fd5b60405162461bcd60e51b815260206004820152601d60248201527f6c6f636b5061796d656e743a207061796d656e742072657175697265640000006044820152606490fd5b60405162461bcd60e51b815260206004820152601a60248201527f6c6f636b5061796d656e743a20696e76616c69642070617965650000000000006044820152606490fd5b60405162461bcd60e51b815260206004820152602260248201527f6c6f636b5061796d656e743a20657363726f7720616c72656164792065786973604482015261747360f01b6064820152608490fd5b60405162461bcd60e51b815260206004820152601c60248201527f6c6f636b5061796d656e743a206261746368206e6f7420666f756e64000000006044820152606490fd5b3461023257604036600319011261023257610963600435610940613439565b9061095e610959825f525f602052600160405f20015490565b61367e565b61373e565b005b34610232575f3660031901126102325760206040517f8eb467f061ca67f42a2d2ca4a346fc9fb645efc0ba75056ee9f71c3a0ccc10a88152f35b3461023257608036600319011261023257602435604435600435600682101561023257335f9081527f40da0f42a661166d5434d4603ecbff423639c47e2526ad0538d7c3517a6238906020526040902054606435919060ff1615610fa957610a05613614565b610a0e836133f6565b8215610f5a57610a1d836133f6565b600283148015610f47575b15610ee9578115610e98575b805f52600760205260405f2093600585015415610e5357600685019060ff82541660048110156104955760028114159081610e47575b5015610e02578015610daf57600186019586545f526006602052600360ff600660405f20015416610a9a816133f6565b03610d5a57600781015415610cef5760ff600d8201541615610c8557610abf866133f6565b60058614908115610c7957610ad660038095613553565b826008820155610ae9876009830161356b565b600a8101869055600b810180546001600160a01b0319163317905542600c9091015586545f90815260066020526040902060070180545f19810191908211610c65575515610be85785545f81815260066020819052604090912001805491979160ff1690805460ff1916600417905560405190610b65816133f6565b815261096397600460208301524260408301525f5160206139eb5f395f51905f5260603393a35b54928391610b9d60405180956133e9565b610ba6876133f6565b86602085015260408401528460608401524260808401527fdfa8e7d7fd35cc81161a8acedfbcf97159a88f813840ad460453ccc97384ca8a60a03394a461384a565b855495865f526006602052600760405f20015415610c0b575b6109639650610b8c565b5f87815260066020819052604090912001805460ff1690805460ff1916600517905560405190610c3a816133f6565b815261096397600560208301524260408301525f5160206139eb5f395f51905f5260603393a3610c01565b634e487b7160e01b5f52601160045260245ffd5b610ad660028095613553565b608460405162461bcd60e51b815260206004820152604060248201527f7265736f6c766549737375653a207374616b65686f6c64657220636f6e66697260448201527f6d6174696f6e207265717569726564206265666f7265207265736f6c76696e676064820152fd5b60405162461bcd60e51b815260206004820152603860248201527f7265736f6c766549737375653a2065766964656e6365206d757374206265206160448201527f6e63686f726564206265666f7265207265736f6c76696e6700000000000000006064820152608490fd5b60405162461bcd60e51b815260206004820152602760248201527f7265736f6c766549737375653a206261746368206973206e6f7420756e6465726044820152662072657669657760c81b6064820152608490fd5b60405162461bcd60e51b815260206004820152602560248201527f7265736f6c766549737375653a20736574746c656d656e7448617368207265716044820152641d5a5c995960da1b6064820152608490fd5b60405162461bcd60e51b815260206004820152601d60248201527f7265736f6c766549737375653a20616c726561647920736574746c65640000006044820152606490fd5b60039150141587610a6a565b60405162461bcd60e51b815260206004820152601d60248201527f7265736f6c766549737375653a206973737565206e6f7420666f756e640000006044820152606490fd5b60405162461bcd60e51b815260206004820152602360248201527f7265736f6c766549737375653a20726566756e64416d6f756e742072657175696044820152621c995960ea1b6064820152608490fd5b8115610a345760405162461bcd60e51b815260206004820152602a60248201527f7265736f6c766549737375653a20726566756e64416d6f756e74206f6e6c7920604482015269199bdc881c99599d5b9960b21b6064820152608490fd5b50610f51836133f6565b60038314610a28565b60405162461bcd60e51b815260206004820152602160248201527f7265736f6c766549737375653a207265736f6c7574696f6e20726571756972656044820152601960fa1b6064820152608490fd5b63e2517d3f60e01b5f52336004527f92a19c77d2ea87c7f81d50c74403cb2f401780f3ad919571121efe2bdb427eb160245260445ffd5b34610232576020366003190112610232576004355f52600660205260405f20805460018201549161101360028201613325565b60ff60018060a01b036003840154169260018060a01b036004820154169060058101546006820154926110686007868616940154966040519a8b9a8b5260208b015261012060408b01526101208a01906133c5565b966060890152608088015260a0870152611081816133f6565b60c086015260081c16151560e08401526101008301520390f35b3461023257602036600319011261023257600435805f526007602052600560405f200154156110e2575f526007602052602060ff600d60405f200154166040519015158152f35b60405162461bcd60e51b815260206004820152602660248201527f69735265736f6c7574696f6e436f6e6669726d65643a206973737565206e6f7460448201526508199bdd5b9960d21b6064820152608490fd5b34610232575f3660031901126102325760206040515f8152f35b3461023257604036600319011261023257611169613439565b6004355f525f60205260405f209060018060a01b03165f52602052602060ff60405f2054166040519015158152f35b34610232576020366003190112610232576004356111b4613614565b805f52600960205260405f209060078201805460ff8160081c16156114795760ff1660058110156104955760010361142a57815f52600660205260ff600660405f20015416611202816133f6565b60028114908115611416575b50156113c15760018301546001600160a01b0316331480156113ab575b8015611374575b801561133d575b156112ea57600260ff198254161790554260068301557fe120094e1b9eaf4ca9d812ae01a7158f9e3c3357b5d63a15a2b7953394243e736004830154926002611286856003840154613607565b91856112ce575b0180546112a49083906001600160a01b03166137be565b5460408051928352602083019590955242948201949094526001600160a01b0390931692606090a3005b6005546112e59087906001600160a01b03166137be565b61128d565b60405162461bcd60e51b815260206004820152602560248201527f72656c656173655061796d656e743a2063616c6c6572206e6f7420617574686f6044820152641c9a5e995960da1b6064820152608490fd5b50335f9081527fad3228b676f7d3cd4284a5443f17f1962b36e491b30a40b2405849e597ba5fb5602052604090205460ff16611239565b50335f9081527f40da0f42a661166d5434d4603ecbff423639c47e2526ad0538d7c3517a623890602052604090205460ff16611232565b5060028301546001600160a01b0316331461122b565b60405162461bcd60e51b815260206004820152602760248201527f72656c656173655061796d656e743a207061796d656e742074726967676572206044820152661b9bdd081b595d60ca1b6064820152608490fd5b60059150611423816133f6565b148461120e565b60405162461bcd60e51b815260206004820152602160248201527f72656c656173655061796d656e743a20657363726f77206e6f74206c6f636b656044820152601960fa1b6064820152608490fd5b606460405162461bcd60e51b815260206004820152602060248201527f72656c656173655061796d656e743a20657363726f77206e6f7420666f756e646044820152fd5b34610232575f366003190112610232576114d561362f565b6114dd613614565b600160ff19815416176001557f62e78cea01bee320cd4e420270b5ea74000d11b0c9f74754ebdbfc544b05a2586020604051338152a16040514281527f80170b5fcdd2bf1e0660ef4b8851f86685f64d41b1a19de1471947ece8725aac60203392a2005b346102325760403660031901126102325760043561155d613439565b611565613614565b815f52600660205260405f209160068301549260ff8460081c16156119ba5760040180546001600160a01b031692338403611960576001600160a01b0316938415611910575f8581525f516020613a0b5f395f51905f52602052604090205460ff1680156118ed575b156118825760ff166115df816133f6565b8061177a57505f8481525f516020613a0b5f395f51905f52602052604090205460ff1615611710575b80546001600160a01b031916841790555f8381525f516020613a0b5f395f51905f52602052604090205460ff16156116b9575f81815260066020819052604090912001805460ff1690805460ff1916600117905560405190611669816133f6565b815260016020820152426040820152815f5160206139eb5f395f51905f5260603393a35b7f55f940726e9a2689d79bf3c29305c07b4df0134b15e5e06e78894b2d2fea32366020604051428152a4005b5f81815260066020819052604090912001805460ff1690805460ff19166002179055604051906116e8816133f6565b815260026020820152426040820152815f5160206139eb5f395f51905f5260603393a361168d565b608460405162461bcd60e51b815260206004820152604060248201527f7472616e73666572437573746f64793a2066726f6d204d696e7465642c206d7560448201527f7374207472616e7366657220746f206469737472696275746f722066697273746064820152fd5b611783816133f6565b600181036117915750611608565b60029061179d816133f6565b036118175760405162461bcd60e51b815260206004820152604160248201527f7472616e73666572437573746f64793a20626174636820616c7265616479206460448201527f656c6976657265642c2063616e6e6f74207472616e73666572206675727468656064820152603960f91b608482015260a490fd5b60405162461bcd60e51b815260206004820152603960248201527f7472616e73666572437573746f64793a206261746368206e6f74207472616e7360448201527f66657261626c6520696e2063757272656e7420737461747573000000000000006064820152608490fd5b60405162461bcd60e51b815260206004820152603a60248201527f7472616e73666572437573746f64793a20726563697069656e74206d7573742060448201527f6265206469737472696275746f72206f722072657461696c65720000000000006064820152608490fd5b505f8581525f516020613a2b5f395f51905f52602052604090205460ff166115ce565b60405162461bcd60e51b815260206004820152602260248201527f7472616e73666572437573746f64793a20696e76616c696420726563697069656044820152611b9d60f21b6064820152608490fd5b60405162461bcd60e51b815260206004820152602c60248201527f7472616e73666572437573746f64793a2063616c6c6572206973206e6f74206360448201526b3ab93932b73a1037bbb732b960a11b6064820152608490fd5b606460405162461bcd60e51b815260206004820152602060248201527f7472616e73666572437573746f64793a206261746368206e6f7420666f756e646044820152fd5b3461023257602036600319011261023257600435805f52600660205260ff600660405f20015460081c1615611a4e575f526006602052602060018060a01b03600460405f20015416604051908152f35b606460405162461bcd60e51b815260206004820152602060248201527f67657443757272656e744f776e65723a206261746368206e6f7420666f756e646044820152fd5b34610232575f3660031901126102325760206040517f92a19c77d2ea87c7f81d50c74403cb2f401780f3ad919571121efe2bdb427eb18152f35b3461023257602036600319011261023257600435805f52600660205260ff600660405f20015460081c1615611b14575f5260066020526020600760405f200154604051908152f35b60405162461bcd60e51b815260206004820152602260248201527f6765744f70656e4973737565436f756e743a206261746368206e6f7420666f756044820152611b9960f21b6064820152608490fd5b3461023257611b723661347d565b929091611b7d613614565b335f9081525f516020613a0b5f395f51905f52602052604090205460ff16801561202b575b15611fc957815f52600660205260405f2060068101549060ff8260081c1615611f845760040154336001600160a01b0390911603611f235760ff16611be6816133f6565b60018114908115611f0f575b5015611eca578015611e7a578315611e355760045490611c11826134f3565b6004556040519460a0860186811067ffffffffffffffff821117611e215760405283865260046020870196338852604081018481526060820190428252611c5936868b61351d565b608084019081525f8881526008602052604090209351845599516001840180546001600160a01b0319166001600160a01b0392909216919091179055516002830155516003820155965180519097919091019067ffffffffffffffff8111611e2157611cc582546132ae565b601f8111611ddc575b506020601f8211600114611d565781907fb676608c798cb0c3a061603cc2500b0d989bf3f1814b454d90b2a4db01363c34969798995f92611d4b575b50508160011b915f199060031b1c19161790555b845f52600b602052611d338460405f20613583565b611d4660405192839233984292856135bc565b0390a4005b015190508980611d0a565b601f19821698835f52815f20995f5b818110611dc45750917fb676608c798cb0c3a061603cc2500b0d989bf3f1814b454d90b2a4db01363c349798999a91846001959410611dac575b505050811b019055611d1e565b01515f1960f88460031b161c19169055898080611d9f565b838301518c556001909b019a60209384019301611d65565b825f5260205f20601f830160051c81019160208410611e17575b601f0160051c01905b818110611e0c5750611cce565b5f8155600101611dff565b9091508190611df6565b634e487b7160e01b5f52604160045260245ffd5b60405162461bcd60e51b815260206004820152601c60248201527f757064617465437573746f64793a206e6f7465207265717569726564000000006044820152606490fd5b60405162461bcd60e51b815260206004820152602260248201527f757064617465437573746f64793a207570646174654861736820726571756972604482015261195960f21b6064820152608490fd5b60405162461bcd60e51b815260206004820152601f60248201527f757064617465437573746f64793a206261746368206e6f7420616374697665006044820152606490fd5b60029150611f1c816133f6565b1485611bf2565b60405162461bcd60e51b815260206004820152603360248201527f757064617465437573746f64793a2063616c6c6572206973206e6f74206375726044820152720e4cadce840deeedccae440decc40c4c2e8c6d606b1b6064820152608490fd5b60405162461bcd60e51b815260206004820152601e60248201527f757064617465437573746f64793a206261746368206e6f7420666f756e6400006044820152606490fd5b60405162461bcd60e51b815260206004820152603460248201527f757064617465437573746f64793a2063616c6c6572206973206e6f74206469736044820152733a3934b13aba37b91037b9103932ba30b4b632b960611b6064820152608490fd5b50335f9081525f516020613a2b5f395f51905f52602052604090205460ff16611ba2565b34610232575f3660031901126102325760206040517f59a1c48e5837ad7a7f3dcedcbe129bf3249ec4fbf651fd4f5e2600ead39fe2f58152f35b34610232575f366003190112610232576005546040516001600160a01b039091168152602090f35b34610232575f36600319011261023257602060ff600154166040519015158152f35b346102325760403660031901126102325760243567ffffffffffffffff81116102325761210490369060040161344f565b335f9081527f06320dbdbf18953a1af49a3fe4ea5804853716848e42abbca49898582e53bfc0602052604090205460ff161561248557612142613614565b600435156124355780156123e6576002549061215d826134f3565b60025560405161216c816132e6565b8281526020810190600435825261218436848761351d565b6040820190815260608201338152608083019033825260a08401924284525f60c0860152600160e08601525f610100860152875f52600660205260405f2095855187555160018701555180519067ffffffffffffffff8211611e21576121ed60028801546132ae565b601f811161239e575b5091602099959391899795938b90601f8311600114612302579361010093837f5746e27efce880099ede9269c442426a62a116be87e4981902368fdf90476c829a98946122ec9a98946007985f926122f7575b50508160011b915f199060031b1c19161760028801555b516003870180546001600160a01b03199081166001600160a01b03938416179091559151600488018054909316911617905551600585015560c08101516122d49060068601906122b9906122b3816133f6565b8261356b565b60e0830151815461ff00191690151560081b61ff0016179055565b015191015560405191829133964291600435856135bc565b0390a3604051908152f35b015190505f80612249565b90600288015f52805f20915f5b601f19851681106123845750936001846122ec9a989460079894610100987f5746e27efce880099ede9269c442426a62a116be87e4981902368fdf90476c829e9c98601f1981161061236c575b505050811b016002880155612260565b01515f1960f88460031b161c191690555f808061235c565b8183015184558d9b50600190930192918e01918e0161230f565b600288015f5260205f20601f840160051c810191602085106123dc575b601f0160051c01905b8181106123d157506121f6565b5f81556001016123c4565b90915081906123bb565b60405162461bcd60e51b815260206004820152602160248201527f63726561746542617463683a206d6574616461746143494420726571756972656044820152601960fa1b6064820152608490fd5b60405162461bcd60e51b815260206004820152602260248201527f63726561746542617463683a206d657461646174614861736820726571756972604482015261195960f21b6064820152608490fd5b63e2517d3f60e01b5f52336004527f8eb467f061ca67f42a2d2ca4a346fc9fb645efc0ba75056ee9f71c3a0ccc10a860245260445ffd5b34610232576020366003190112610232576004355f52600860205260405f20805461021860018060a01b0360018401541692600281015490612505600460038301549201613325565b91604051958695865260208601526040850152606084015260a0608084015260a08301906133c5565b346102325761253c3661347d565b9192612546613614565b335f9081527facfff8a39fb957d9d1c8e3ef9f08385e3fcf7bb23ab7ba0ad0f8df93dbde6a68602052604090205460ff168015612afc575b8015612ad8575b15612a6d57805f52600660205260ff600660405f20015460081c1615612a2857805f526006602052600460ff600660405f200154166125c3816133f6565b141580612a02575b156129bd57831561297857821561293357600354926125e9846134f3565b6003556040516101c081019080821067ffffffffffffffff831117611e21575f91604052858152602081019084825286604082019289845261262c36878a61351d565b93606084019485526080840133815260a085019542875260c0860188815260e08701978989526101008801938a85526101208901938b85526101408a01968c88526101608b01988d8a526101808c019a8e8c526101a08d019e8f525f52600760205260405f209b518c555160018c01555160028b015560038a01905180519067ffffffffffffffff8211611e215781906126c684546132ae565b601f81116128e3575b50602090601f8311600114612880575f92612875575b50508160011b915f199060031b1c19161790555b51600489810180546001600160a01b0319166001600160a01b039390931692909217909155905160058901559051929083101561049557600d976127436127629460068a01613553565b51600788015551600887015551612759816133f6565b6009860161356b565b51600a84015560018060a01b03905116600b83019060018060a01b03166bffffffffffffffffffffffff60a01b82541617905551600c820155019051151560ff80198354169116179055815f52600a6020526127c18460405f20613583565b815f526006602052600760405f200180549060018201809211610c6557555f82815260066020819052604090912001805460ff1690805460ff191660031790556040519061280e816133f6565b81526020958592826003897f79bfa5aacb8bf824e41d03a73ff7653174f30790e3bf4eb9e507d696743b743c950152426040820152855f5160206139eb5f395f51905f5260603393a361286a60405192839233984292856135bc565b0390a4604051908152f35b015190505f806126e5565b5f8581528281209350601f198516905b8181106128cb57509084600195949392106128b3575b505050811b0190556126f9565b01515f1960f88460031b161c191690555f80806128a6565b92936020600181928786015181550195019301612890565b909150835f5260205f20601f840160051c81019160208510612929575b90601f859493920160051c01905b81811061291b57506126cf565b5f815584935060010161290e565b9091508190612900565b60405162461bcd60e51b815260206004820152601f60248201527f7265706f727449737375653a20697373756554797065207265717569726564006044820152606490fd5b60405162461bcd60e51b815260206004820152601f60248201527f7265706f727449737375653a20697373756548617368207265717569726564006044820152606490fd5b60405162461bcd60e51b815260206004820152601d60248201527f7265706f727449737375653a206261746368206e6f74206163746976650000006044820152606490fd5b50805f526006602052600360ff600660405f20015416612a21816133f6565b14156125cb565b60405162461bcd60e51b815260206004820152601c60248201527f7265706f727449737375653a206261746368206e6f7420666f756e64000000006044820152606490fd5b60405162461bcd60e51b815260206004820152603e60248201527f7265706f727449737375653a2063616c6c6572206973206e6f7420696e73706560448201527f63746f722c2072657461696c65722c206f72206469737472696275746f7200006064820152608490fd5b50335f9081525f516020613a0b5f395f51905f52602052604090205460ff16612585565b50335f9081525f516020613a2b5f395f51905f52602052604090205460ff1661257e565b34610232575f36600319011261023257612b3861362f565b60015460ff811615612ba35760ff19166001557f5db9ee0a495bf2e6ff9c91a7834c1ba4fdd244a5e8aa4e537bd38aeae4b073aa6020604051338152a16040514281527f107553d8191d85b405879cf752997865edd48d94e20bda4dd27223c94b31a7cc60203392a2005b638dfc202b60e01b5f5260045ffd5b3461023257604036600319011261023257612bcb613439565b336001600160a01b03821603612be7576109639060043561373e565b63334bd91960e11b5f5260045ffd5b3461023257604036600319011261023257610963600435612c15613439565b90612c2e610959825f525f602052600160405f20015490565b6136b6565b3461023257602036600319011261023257600435805f52600660205260ff600660405f20015460081c1615612c87575f526006602052602060ff600660405f2001541660405190612c83816133f6565b8152f35b60405162461bcd60e51b815260206004820152601f60248201527f67657442617463685374617475733a206261746368206e6f7420666f756e64006044820152606490fd5b34610232576020366003190112610232576020612cf66004355f525f602052600160405f20015490565b604051908152f35b34610232575f3660031901126102325760206040517f2a5f906c256a5d799494fcd066e1f6c077689de1cdb65052a1624de4bace99bf8152f35b34610232576020366003190112610232576004355f52600a60205260405f206040519081602082549182815201915f5260205f20905f5b818110612d86576102188561020c81870382613303565b8254845260209093019260019283019201612d6f565b3461023257602036600319011261023257600435612db8613614565b335f9081527f06320dbdbf18953a1af49a3fe4ea5804853716848e42abbca49898582e53bfc0602052604090205460ff16801561308b575b8015613067575b15612ff057805f52600760205260405f20600581015415612fa05760ff6006820154166004811015610495578015908115612f95575b5015612f3f57600781015415612ed457600d01805460ff8116612e835760019060ff1916179055604051904282527f4408f038173fbb1702f7b2759ec445bef6fe01ed3435d3b0066992cdb04cc6f960203393a3005b60405162461bcd60e51b8152602060048201526024808201527f636f6e6669726d5265736f6c7574696f6e3a20616c726561647920636f6e66696044820152631c9b595960e21b6064820152608490fd5b60405162461bcd60e51b815260206004820152603e60248201527f636f6e6669726d5265736f6c7574696f6e3a2065766964656e6365206d75737460448201527f20626520616e63686f726564206265666f726520636f6e6669726d696e6700006064820152608490fd5b60405162461bcd60e51b815260206004820152602860248201527f636f6e6669726d5265736f6c7574696f6e3a20697373756520616c7265616479604482015267081cd95d1d1b195960c21b6064820152608490fd5b600191501483612e2d565b60405162461bcd60e51b815260206004820152602260248201527f636f6e6669726d5265736f6c7574696f6e3a206973737565206e6f7420666f756044820152611b9960f21b6064820152608490fd5b60a460405162461bcd60e51b815260206004820152604460248201527f636f6e6669726d5265736f6c7574696f6e3a2063616c6c6572206d757374206260448201527f652070726f64756365722c206469737472696275746f722c206f72207265746160648201526334b632b960e11b6084820152fd5b50335f9081525f516020613a2b5f395f51905f52602052604090205460ff16612df7565b50335f9081525f516020613a0b5f395f51905f52602052604090205460ff16612df0565b34610232576020366003190112610232576004355f52600760205260405f2080546001820154916002810154600382016130e890613325565b91600160a01b60019003600482015416926005820154600683015460ff166007840154600885015490600986015460ff1692600a87015494600160a01b60019003600b8901541696600c89015498600d015460ff16996040519d8e809e81526020015260408d015260608c016101c090526101c08c01613167916133c5565b9960808c015260a08b015260c08a0161317f916133e9565b60e0890152610100880152613193816133f6565b61012087015261014086015261016085015261018084015215156101a08301520390f35b346102325760203660031901126102325760043563ffffffff60e01b811680910361023257602090637965db0b60e01b81149081156131fc575b506040519015158152f35b6301ffc9a760e01b149050826131f1565b34610232576020366003190112610232576004355f52600960205260405f2090815460018060a01b036001840154169260018060a01b036002820154166003820154600483015490600584015492600760068601549501549760ff8916968852602088015260408701526060860152608085015260a084015260c08301526005811015610495576101209260ff9160e084015260081c161515610100820152f35b90600182811c921680156132dc575b60208310146132c857565b634e487b7160e01b5f52602260045260245ffd5b91607f16916132bd565b610120810190811067ffffffffffffffff821117611e2157604052565b90601f8019910116810190811067ffffffffffffffff821117611e2157604052565b9060405191825f825492613338846132ae565b80845293600181169081156133a3575060011461335f575b5061335d92500383613303565b565b90505f9291925260205f20905f915b81831061338757505090602061335d928201015f613350565b602091935080600191548385890101520191019091849261336e565b90506020925061335d94915060ff191682840152151560051b8201015f613350565b805180835260209291819084018484015e5f828201840152601f01601f1916010190565b9060048210156104955752565b6006111561049557565b60206040818301928281528451809452019201905f5b8181106134235750505090565b8251845260209384019390920191600101613416565b602435906001600160a01b038216820361023257565b9181601f840112156102325782359167ffffffffffffffff8311610232576020838186019501011161023257565b60606003198201126102325760043591602435916044359067ffffffffffffffff8211610232576134b09160040161344f565b9091565b6040906003190112610232576004359060243590565b80548210156134df575f5260205f2001905f90565b634e487b7160e01b5f52603260045260245ffd5b5f198114610c655760010190565b67ffffffffffffffff8111611e2157601f01601f191660200190565b92919261352982613501565b916135376040519384613303565b829481845281830111610232578281602093845f960137010152565b9060048110156104955760ff80198354169116179055565b90613575816133f6565b60ff80198354169116179055565b805468010000000000000000811015611e21576135a5916001820181556134ca565b819291549060031b91821b915f19901b1916179055565b94939280604093608093885260606020890152816060890152838801375f828288010152601f8019910116850101930152565b9060058110156104955760ff80198354169116179055565b91908203918211610c6557565b60ff6001541661362057565b63d93c066560e01b5f5260045ffd5b335f9081527fad3228b676f7d3cd4284a5443f17f1962b36e491b30a40b2405849e597ba5fb5602052604090205460ff161561366757565b63e2517d3f60e01b5f52336004525f60245260445ffd5b5f8181526020818152604080832033845290915290205460ff16156136a05750565b63e2517d3f60e01b5f523360045260245260445ffd5b5f818152602081815260408083206001600160a01b038616845290915290205460ff16613738575f818152602081815260408083206001600160a01b0395909516808452949091528120805460ff19166001179055339291907f2f8788117e7eff1d82e926ec794901d17c78024a50270940304540a733656f0d9080a4600190565b50505f90565b5f818152602081815260408083206001600160a01b038616845290915290205460ff1615613738575f818152602081815260408083206001600160a01b0395909516808452949091528120805460ff19169055339291907ff6391f5c32d9c69d2a47ea670b442974b53935d1edc7fd64eb21e047a839171b9080a4600190565b5f918291829182916001600160a01b03165af13d15613845573d6137e181613501565b906137ef6040519283613303565b81525f60203d92013e5b1561380057565b60405162461bcd60e51b815260206004820152601860248201527f7061796d656e743a207472616e73666572206661696c656400000000000000006044820152606490fd5b6137f9565b9080156139e557815f52600960205260405f20906007820190815460ff8160081c16156139dd5760ff16600581101561049557600103613998576003830154808211613947577f5faf11bb77ccd0c8eab78c4b94af7e17d989d2131fed85e89a3b49b8cad1d438936138d16060946138c28585613607565b93850361393f576003906135ef565b42600682015560018101916138ef8460018060a01b038554166137be565b8061391f575b5050546040519182526001600160a01b031694613911816133f6565b6020820152426040820152a3565b60029091015461393891906001600160a01b03166137be565b5f806138f5565b6004906135ef565b60405162461bcd60e51b815260206004820152602360248201527f7265736f6c766549737375653a20726566756e64206578636565647320657363604482015262726f7760e81b6064820152608490fd5b60405162461bcd60e51b815260206004820152601f60248201527f7265736f6c766549737375653a20657363726f77206e6f74206c6f636b6564006044820152606490fd5b505050505050565b50505056fec52b2303143dfcdc277d6fc658b2fee8596df14a4157e0699d22e1086ed8769337775adb12013835ce20d78b1c52193dd1da3dc792bc1ec9a2d7427221516c8a7d2ff12adb962f8af2796f09b4dfd39c23d7c774bbd4cb0e6564ba0669af2afca26469706673582212209b1d99e64809f34e09058adfdd1b7cf7a6946a7d495287d6e32ddd646e652f6b64736f6c634300081c0033ad3228b676f7d3cd4284a5443f17f1962b36e491b30a40b2405849e597ba5fb5",
  "linkReferences": {},
  "deployedLinkReferences": {},
  "immutableReferences": {},
  "inputSourceName": "project/contracts/Counter.sol",
  "buildInfoId": "solc-0_8_28-ae9f99d6969b453f98c00b9866ff892a8982ffc8"
}